:020000040000fa
:080000000001040000000000f3
:020000040000fa
:0400080050020000a2
:020000040000fa
:04000c00620200008c
:020000040000fa
:040010007202000078
:020000040000fa
:04001400580200008e
:020000040000fa
:040018006a02000078
:020000040000fa
:04001c007a02000064
:020000040000fa
:040020007a02000060
:020000040000fa
:040024007a0200005c
:020000040000fa
:040028007a02000058
:020000040000fa
:04002c007a02000054
:020000040000fa
:040030007a02000050
:020000040000fa
:0400340018020000ae
:020000040000fa
:040038007a02000048
:020000040000fa
:04003c007a02000044
:020000040000fa
:040040007a02000040
:020000040000fa
:040044007a0200003c
:020000040000fa
:040048007a02000038
:020000040000fa
:04004c007a02000034
:020000040000fa
:040050007a02000030
:020000040000fa
:040054007a0200002c
:020000040000fa
:040058007a02000028
:020000040000fa
:04005c007a02000024
:020000040000fa
:040060007a02000020
:020000040000fa
:040064007a0200001c
:020000040000fa
:040068007a02000018
:020000040000fa
:04006c007a02000014
:020000040000fa
:040070007a02000010
:020000040000fa
:040074007a0200000c
:020000040000fa
:040078007a02000008
:020000040000fa
:04007c007a02000004
:020000040000fa
:040080007a02000000
:020000040000fa
:040084007a020000fc
:020000040000fa
:040088007a020000f8
:020000040000fa
:04008c007a020000f4
:020000040000fa
:040090007a020000f0
:020000040000fa
:040094007a020000ec
:020000040000fa
:040098007a020000e8
:020000040000fa
:04009c007a020000e4
:020000040000fa
:0400a0007a020000e0
:020000040000fa
:0400a4007a020000dc
:020000040000fa
:0400a8007a020000d8
:020000040000fa
:0400ac007a020000d4
:020000040000fa
:0400b0007a020000d0
:020000040000fa
:0400b4007a020000cc
:020000040000fa
:0400b8007a020000c8
:020000040000fa
:0400bc007a020000c4
:020000040000fa
:0400c0007a020000c0
:020000040000fa
:0400c4007a020000bc
:020000040000fa
:0400c8007a020000b8
:020000040000fa
:0400cc007a020000b4
:020000040000fa
:0400d0007a020000b0
:020000040000fa
:0400d4007a020000ac
:020000040000fa
:0400d8007a020000a8
:020000040000fa
:0400dc007a020000a4
:020000040000fa
:0400e0007a020000a0
:020000040000fa
:0400e4007a0200009c
:020000040000fa
:0400e8007a02000098
:020000040000fa
:0400ec007a02000094
:020000040000fa
:0400f0007a02000090
:020000040000fa
:0400f4007a0200008c
:020000040000fa
:0400f8007a02000088
:020000040000fa
:0400fc007a02000084
:020000040000fa
:040100007a0200007f
:020000040000fa
:040104007a0200007b
:020000040000fa
:040108007a02000077
:020000040000fa
:04010c007a02000073
:020000040000fa
:040110007a0200006f
:020000040000fa
:040114007a0200006b
:020000040000fa
:040118007a02000067
:020000040000fa
:04011c007a02000063
:020000040000fa
:040120007a0200005f
:020000040000fa
:040124007a0200005b
:020000040000fa
:040128007a02000057
:020000040000fa
:04012c007a02000053
:020000040000fa
:040130007a0200004f
:020000040000fa
:040134007a0200004b
:020000040000fa
:040138007a02000047
:020000040000fa
:04013c007a02000043
:020000040000fa
:040140007a0200003f
:020000040000fa
:040144007a0200003b
:020000040000fa
:040148007a02000037
:020000040000fa
:04014c007a02000033
:020000040000fa
:040150007a0200002f
:020000040000fa
:040154007a0200002b
:020000040000fa
:040158007a02000027
:020000040000fa
:04015c007a02000023
:020000040000fa
:040160007a0200001f
:020000040000fa
:040164007a0200001b
:020000040000fa
:040168007a02000017
:020000040000fa
:04016c007a02000013
:020000040000fa
:040170007a0200000f
:020000040000fa
:040174007a0200000b
:020000040000fa
:040178007a02000007
:020000040000fa
:04017c007a02000003
:020000040000fa
:040180007a020000ff
:020000040000fa
:040184007a020000fb
:020000040000fa
:040188007a020000f7
:020000040000fa
:04018c007a020000f3
:020000040000fa
:040190007a020000ef
:020000040000fa
:040194007a020000eb
:020000040000fa
:040198007a020000e7
:020000040000fa
:04019c007a020000e3
:020000040000fa
:0401a0007a020000df
:020000040000fa
:0401a4007a020000db
:020000040000fa
:0401a8007a020000d7
:020000040000fa
:0401ac007a020000d3
:020000040000fa
:0401b0007a020000cf
:020000040000fa
:0401b4007a020000cb
:020000040000fa
:0401b8007a020000c7
:020000040000fa
:0401bc007a020000c3
:020000040000fa
:0401c0007a020000bf
:020000040000fa
:0401c4007a020000bb
:020000040000fa
:0401c8007a020000b7
:020000040000fa
:0401cc007a020000b3
:020000040000fa
:0401d0007a020000af
:020000040000fa
:0401d4007a020000ab
:020000040000fa
:0401d8007a020000a7
:020000040000fa
:0401dc007a020000a3
:020000040000fa
:0401e0007a0200009f
:020000040000fa
:0401e4007a0200009b
:020000040000fa
:0401e8007a02000097
:020000040000fa
:0401ec007a02000093
:020000040000fa
:0401f0007a0200008f
:020000040000fa
:0401f4007a0200008b
:020000040000fa
:0401f8007a02000087
:020000040000fa
:0401fc007a02000083
:020000040000fa
:10020000cfd121000e7f24000e01880000000000e5
:10021000000020000000e000020032000001200089
:100220002002880014000700b40007000000e0006e
:1002300003003a0040a7220001002000020037001e
:100240000000200001002000810f7000010032003a
:1002500014000700000020000000e000020032004f
:100260000000020000000000262a0200000000003a
:100270000040da000000fe004440a90060052000b4
:100280000000e00003003200002020009001880000
:100290004440a800000006008a1f78008b1f7800e9
:1002a00000000600a1028800800478000000eb0036
:1002b0001f003700e284440054a0b4009905ba003e
:1002c000e284440054a0b4009906ba00e2844400d9
:1002d00054a0b4000006eb00476fde00fd07b2003b
:1002e000ae018800636ce10003003a00eaff0700fa
:1002f0000000eb000e003700606ce10008003a00df
:10030000004deb000a05e800020039003420ec0043
:100310000af0a0008b05e900f9ff3e000400370059
:100320006168e100010032000086eb000b0007006d
:1003300019c7ba001905ba000e04e00003003a001c
:100340000a00e000dbff3a0000000600fe07b200f2
:10035000ae0288008a047800f5ff37000cd0a300b5
:10036000e20f4d001c00390089027800354dba00bb
:100370000a05e800020039003420ec000af0a00071
:100380008b05e9000f003200254dba000a05e80090
:10039000020039003420ec000af0a0008b05e900cf
:1003a000080032000c00e0000600320015cdba0053
:1003b0000a05e800020039003420ec000af0a00031
:1003c0008b05e9008984e80054a0b4000b00e0002c
:1003d000e2ff3a00000006009902ba00055d7800cd
:1003e0008b05e900f7ff3200c82ade00055d7800c2
:1003f0008b05e900f3ff32000c00e000f1ff320052
:1004000019ddba00eeff3700bc0c0400000000004c
:100410001a20040000000000dc2a04000000000094
:10042000362a040000000000222b04000000000017
:100430003600f800809fbe00829fbe00849fbe00f1
:10044000869fbe003200f8003400f8001000200043
:10045000a001880000202000900188000000fa0020
:100460008860a9008b0307000000e0000300320051
:10047000d229020000000000000000000080fa0005
:100480003400f9003200f9004f03be004f02be00f5
:100490004f01be004f00be003600f90000400600cc
:1004a0003600f8008020a9000000eb00e2140700ed
:1004b0003600f800e41407008040a9001000200076
:1004c000dd1407003600f8008060a900200020003d
:1004d000d91407003600f8008080a9003000200001
:1004e000d51407003600f8008600a900700020002f
:1004f000d11407000040da000000fe0000000500f3
:100500000900370030427800b1417800834f520033
:100510000400320010002000060031000080eb00d3
:10052000000006000201e9000200e000f5ff3a00c9
:100530000000eb0000000600800178000200370098
:10054000b15978000201e9000200e000fcff3a0026
:100550000000060080017800020037008159780011
:100560000201e9000200e000fcff3a000000060082
:020000040000fa
:100570001111000022220000333300004444000027
:1005800055550000666600007777000088880000f7
:1005900099990000aaaa0000bbbb0000cccc0000c7
:1005a000dddd0000eeee0000cecd0000acab0000c3
:1005b000494400004c45000000a50000a5a500002e
:1005c000a5a50000a5a50000a5a50000a5a5000003
:1005d000a5a50000a5a50000a5a50000a5a50000f3
:1005e000a500000074610000736b00004e61000004
:1005f0006d6500000000000074610000736b000076
:100600004e6100006d65000000000000546d0000a8
:0c06100072200000537600006300000020
:020000040000fa
:10061c001000fa0020079800310798004207980054
:10062c00530798006407980075079800a0032000f2
:10063c001a130700000f78001e0078000000e0007d
:10064c000e0032004e009000000040001313070013
:10065c00800078001e007800610898001e00780069
:10066c00600890000000e00004003a001e007800d2
:10067c003b1307000000eb00000f78001e00780011
:10068c000000e000120032004e0090008000eb00f1
:10069c000001eb00821f78009e0378007e0390001f
:1006ac00ee0290005e0290000001be00be009000c1
:1006bc002e0090000b0007008f87e9001e007800c9
:1006cc007900070010002000100798000200370086
:1006dc000080eb00100798001e0090000080fa00cc
:1006ec00000006001400fa0020079800310798005b
:1006fc004207980053079800640798007507980004
:10070c00060f9800170f98004e0090000000400054
:10071c00800078001e0890006008900001017800ad
:10072c00510a200088ff07001e089000e008900086
:10073c00110798001e089000e00890004e019000f0
:10074c00f0ff2700000041000000400080804000c6
:10075c001e089000711098000000eb00000f78004c
:10076c000d0037003e0090001e00400090407800c5
:10077c001e0890001e0040007e00400001487800da
:10078c003e0090001e004000104078000004e00085
:10079c00050032001e0fe8001e007800ef0f50001d
:1007ac00f0ff360001003700000000001e0890002a
:1007bc008040eb00516898007e009000e40f5000e0
:1007cc000200360040002000700798001e089000c0
:1007dc00fe009000510898001e089000fe0090004a
:1007ec00011898001e0890008000eb00111898006a
:1007fc001e0890000080e8008f1107001e08900072
:10080c006e0040008c1107001e0890009e0890009e
:10081c00510098007e0090008000eb0052002000f8
:10082c000300200000005100818059001e09900037
:10083c0070019800010998001e0890009e08900015
:10084c00310898001e0990006000b800201998002b
:10085c00311998001e0890008040eb000178980038
:10086c001e0890008040eb00117898006e019000fb
:10087c00ae0090001e009000f1110700800078007f
:10088c001e089000010878000e0890000000e0009f
:10089c00030032000e0890009e08900001087800ba
:1008ac000080fa00000006000200fa00000f780039
:1008bc005f120700304080000000e80030408800e4
:1008cc00004080000000e00007003a009e00780025
:1008dc000140880030408000e10f50000d003a00cc
:1008ec002d0407000b003700704080000000e00072
:1008fc0008003a0000408000d00890001e007800ec
:10090c0050089000808f500002003e009e0078003e
:10091c0001408800b04080000000e800b040880032
:10092c001e007800d008900060408000808f50003e
:10093c00030036001e0078005008900060408800cc
:10094c001e81e8001e007800500890006c00b90071
:10095c008000780080c42100008040008200780074
:10096c003c1107003f120700704080000000e000bf
:10097c000900320000408000d00890001e00780072
:10098c0050089000808f500003003100d2290200e3
:10099c0000000000000000000080fa0000000600cb
:1009ac000600fa0010079800210798000000eb00e1
:1009bc00000f78001e009000ae009000e00f500079
:1009cc00e08f580007003200f30007000001eb0035
:1009dc001e009000ae009000ce060700f400070049
:1009ec00000f78001e0078000000e00003003a00c1
:1009fc00d229020000000000000000000080fa0074
:100a0c00000006000800fa0030079800be009000b5
:100a1c0011079800004080009e009000808f5000cd
:100a2c0003003a000000eb00000f780012003700c2
:100a3c00ff1107001e009000600090002007980036
:100a4c000812070010408000ae009000808f50000c
:100a5c000400320020408000ae009000808f5000d7
:100a6c0003003a0020002000000f7800020037003d
:100a7c0010002000000f78001e0078000080fa00a3
:100a8c00000006000600fa0020079800e811070095
:100a9c002e0090000000e00002003a0000408000b0
:100aac00010037002e009000000f78001e00780027
:100abc00d008900011079800ea1107001e00900062
:100acc000080fa00000006000800fa0030079800c9
:100adc000000eb00000f78003e0090000000e000ea
:100aec0002003a0000408000010037003e009000f8
:100afc00100798001e009000d00890002107980065
:100b0c002e0090000080fa00000006000c00fa0095
:100b1c0040079800510798000000eb00000f780088
:100b2c005e009000e40f50000200360040002000f0
:100b3c0050079800be1107004e0090000000e00026
:100b4c0002003a0000408000010037004e00900087
:100b5c00100798001e009000801890002107980044
:100b6c00ae0090005e009000808f50005800320064
:100b7c00de0090002e009000808f50000c0036009c
:100b8c00004080009e009000808f50000e003200cc
:100b9c0000408000d00890005e009000808f5000d4
:100bac0009003e0010002000000f780006003700fe
:100bbc00004080009e009000808f500002003a00a0
:100bcc0010002000000f78001e009000d00890004c
:100bdc00310798001e009000801890001e009000b5
:100bec0050089000808f500003003a001e009000c7
:100bfc00de009000510898001e009000de0090006e
:100c0c00011898001e009000800890007000900061
:100c1c00e00f5000e08f5800090035005e00900096
:100c2c008000eb0052002000030020000000510067
:100c3c00818059001e0190007001980001099800f4
:100c4c001e009000600190003e0090006c00b90006
:100c5c008000780080c4210000804000800f51008b
:100c6c0015003a001e0090000080e800d01007002c
:100c7c001e009000d008900060408000808f5000d3
:100c8c00030036001e009000500890006040880061
:100c9c001e0090000081e8001e009000500890009b
:100cac006c00b9008000780080c4210000804000f6
:100cbc0082007800671007001e0078000000e0003a
:100ccc0003003200d22902000000000000000000e6
:100cdc00641107000080fa00000006000200fa0010
:100cec00c58120000002eb008001eb00020820000f
:100cfc00812d2800c0cb200045fe0700000f780096
:100d0c001e007800e10f500002003a00f90b0700ba
:100d1c00000f78001e007800e10f500010003a0020
:100d2c0011028000f0f12f00008060000050a00044
:100d3c001002880000000000000000000080eb00a2
:100d4c008080eb00c0408800d1408800100020005b
:100d5c00704088000828ef000a28ef0005110700f2
:100d6c000080fa00000006000000fa00110280006a
:100d7c00f0f12f00008060000050a00010028800ed
:100d8c0000000000000000000e28ef001111070009
:100d9c000080fa00000006000000fa00f04080001d
:100dac000000e800f04088000080fa000000060017
:100dbc000600fa000000eb00000f78000000eb00ca
:100dcc00100798001a110700f04080000000e9009d
:100ddc00f0408800f04080000000e00045003a0040
:100dec00304080000000e00042003200210037005b
:100dfc0020e5800040009000000f78009e007800f5
:100e0c006e8040006a1007001e80e8006810070022
:100e1c001e007800d008900060408000808f500049
:100e2c00030036001e0078005008900060408800d7
:100e3c001e81e8001e007800500890006c00b9007c
:100e4c008000780080c4210000804000820078007f
:100e5c00001007001e007800d008900000408000b1
:100e6c0050089000808f50000200390010002000c4
:100e7c0090408800e0e480000000e000dcff3a00d5
:100e8c001e0078000000e00001003200df020700c5
:100e9c0081408000210798002e0090000000e000a7
:100eac000c003200f80007000000e00002003200e5
:100ebc0010002000904088002e0090000000e900f7
:100ecc00200798002e0090000000e000f5ff3a008b
:100edc001028ef00904080000000e0000500320078
:100eec001000200010079800d2290200000000001a
:100efc0000000000db1007001e0090000080fa00cc
:100f0c00000006000400fa00c910070042408000ef
:100f1c0053408000028fbe00d21007001e00be009e
:100f2c000080fa00000006000600fa000000eb004a
:100f3c00000f780042408000534080001207980058
:100f4c00230798001e009000ae0090000080fa006d
:100f5c00000006000000fa00304080000080fa001b
:100f6c00000006000400fa00100798001e00900014
:100f7c000000e00002003a00004080000100370051
:100f8c001e009000000f78009e0078007e804000cc
:100f9c000080fa00000006001200fa0070079800aa
:100fac00010f98000000eb00000f78007e0090000d
:100fbc00100078000000e00052003200fe009000ab
:100fcc00210798002e00900010009000a0009000c7
:100fdc002e009000110098002e00900090009000c0
:100fec002e00900064004000808f500005003a00f5
:100ffc002e00900010009000a00090002e00900099
:10100c00110098002e0090001000900040009000fd
:10101c00300798007e019000420798004e00900027
:10102c0010009000a00090004e009000110098005d
:10103c004e009000900090004e0090006400400024
:10104c00808f500005003a004e0090001000900078
:10105c00a00090004e009000110098004e009000ef
:10106c001000900040009000500798000000eb002a
:10107c001007980015003700de0090001e0090004d
:10108c007e00400061417800424f98008e0890002d
:10109c001e00900000804000904078004e48900068
:1010ac0080cf50000d003a004e4890000004e00044
:1010bc0003003a00de009000010f780008003700b2
:1010cc001e0090000000e800100798001e00900021
:1010dc00ef0f5000e8ff3600010037000000000061
:1010ec001e0078000000e00005003a00de009000d1
:1010fc003e009000808f5000c6ff3a000100370080
:10110c00000000001e0078000080fa0000000600bd
:10111c000600fa002007980050002000000f78000d
:10112c001dff07001e0fe9001e0078006c00b900bf
:10113c008000780080c4210000804000ae00900048
:10114c0095ff0700100798001e0090000000e000bb
:10115c0004003a001e0078000000e000f1ff3a00a5
:10116c0001003700000000001e0090000000e000ad
:10117c0004003a0010408000ae00900086ff07008b
:10118c00100798001e0090000000e00004003a00d8
:10119c0020408000ae0090007fff070010079800f1
:1011ac0003ff07001e0090000080fa0000000600fc
:1011bc000600fa0020079800ae009000010f78009e
:1011cc000000eb0010079800f3fe07002e009000c3
:1011dc000cfe0700e20f500027003a001e80e800ca
:1011ec00730f0700121007001e00780040089000d3
:1011fc000000e000060032009e0078006e80400087
:10120c006b0f07001e00780011c0b3001178980016
:10121c00141007001e007800d00890006040800079
:10122c00808f5000030036001e007800500890009c
:10123c00604088001e81e8001e0078005008900075
:10124c006c00b9008000780080c421000080400050
:10125c0082007800ff0e07001e007800d008900076
:10126c000040800050089000808f50000200360033
:10127c001000200090408800cdfe07001e0090005a
:10128c000080fa00000006000e00fa000000eb00df
:10129c00000f7800f04080000000e00066003a008b
:1012ac00404080005140800061004000e0804800d8
:1012bc0010079800210798001e019000ae019000c5
:1012cc0042408800534088001e009000ae00900001
:1012dc00e00f5000e08f58000a003a0013408000e5
:1012ec00330798002040800010408800be0090001a
:1012fc0021408800a04080000000e800a040880049
:10130c00c2010700c0408000d14080001e01900047
:10131c00ae019000800f5100818f59004a003900b6
:10132c000100370000000000104080001000780021
:10133c000000e00005003a000080eb008080eb002c
:10134c00c0408800d1408800400037001040800029
:10135c004000900040009000400798004e00900024
:10136c0010019000a00190005207980063079800ac
:10137c001e019000ae0190005e009000ee00900007
:10138c00800f5100818f5900060031005e019000e2
:10139c00ee019000c2408800d3408800000000009d
:1013ac002a0037004e0090000080e800000f070074
:1013bc004e009000400890000000e0000300320056
:1013cc004e0090006e004000f90e07004e00900099
:1013dc00d008900060408000808f500003003600e1
:1013ec004e00900050089000604088004e00900025
:1013fc000081e8004e009000500890006c00b9008d
:10140c008000780080c421000080400082007800b9
:10141c00900e07004e009000d00890000040800015
:10142c0050089000808f5000beff39001000200043
:10143c00000f7800bcff3700804080000000e800ff
:10144c0080408800010037000000000090408000c0
:10145c000000e0000200320010002000000f7800b5
:10146c001e0078000080fa00000006000600fa005a
:10147c00f04080000000e00003003200100020006b
:10148c0090408800390037001228ef00004080009f
:10149c0070109000100798001e009000740050000f
:1014ac001007980042012000d12d28001e0090004a
:1014bc0010fc07000000e000040032000040800037
:1014cc00fe00400000408000b11007006140800029
:1014dc00010f7800010037001e0fe9001e00780094
:1014ec006c00b9008000780080c4210000804000ae
:1014fc00100078000000e000f7ff32001e007800ba
:10150c006c00b9008000780080c42100008040008d
:10151c00200798002e00900010009000a000900072
:10152c002e009000110098002e009000900090006a
:10153c002e00900064004000808f500005003a009f
:10154c002e00900010009000a00090002e00900043
:10155c00110098002e0090001000900040009000a8
:10156c00004088009e007800614088000080fa00ee
:10157c00000006000600fa00000f78001207980021
:10158c0023079800004080006e0040008000780027
:10159c001e0078004d0e0700120020001e00900067
:1015ac00ae009000db0307000080fa00000006008c
:1015bc000a00fa00000f7800120798002307980021
:1015cc003407980045079800024080001e009000e8
:1015dc00ae00900001f0a000700198000109980085
:1015ec00004080006e004000800078001e007800f3
:1015fc00180e0700120020003e009000ce00900054
:10160c00c40307000080fa00000006000800fa007e
:10161c00000f7800120798002307980031079800f4
:10162c00004080006e004000800078001e007800b2
:10163c00080e07003e0090000000e000040032009d
:10164c000080eb008080eb001007980021079800c9
:10165c003e0190001e009000ae009000ad0307000c
:10166c000080fa00000006000600fa00200798002f
:10167c002e00900040009000400090001007980051
:10168c001e0090006e004000490e0700f0408000e4
:10169c000000e00016003a001e0090000080e800f8
:1016ac00430e07001e009000d008900060408000a0
:1016bc00808f5000030036001e00900050089000f0
:1016cc00604088001e0090000081e8001e00900021
:1016dc00500890006c00b9008000780080c4210094
:1016ec000080400082007800da0d0700050037000a
:1016fc001e0090006e00400080007800c0c92100e0
:10170c00d40d07001e009000d0089000004080000f
:10171c0050089000808f500005003600100020000b
:10172c00000f780010002000904088000200370065
:10173c000000eb00000f78001e0078000080fa001b
:10174c00000006000a00fa002007980032079800f3
:10175c00430798003e009000ce00900001f0a000de
:10176c002e0190000089be002e00900040009000d9
:10177c00100798002e0090000d0e07001e00900020
:10178c000080e8000a0e07001e009000d0089000b0
:10179c0060408000808f5000030036001e009000d7
:1017ac0050089000604088001e0090000081e80006
:1017bc001e009000500890006c00b900800078006a
:1017cc0080c421000080400082007800a10d070039
:1017dc001e009000d008900000408000500890003f
:1017ec00808f50000500360010002000000f78009c
:1017fc001000200090408800020037000000eb0031
:10180c00000f78001e0078000080fa00000006002f
:10181c000200fa00000f7800a14080001e00780042
:10182c000108780040408000514080001e01780083
:10183c0010019800210198000080fa0000000600b9
:10184c000a00fa003007980041079800780e07004c
:10185c0042408000534080001207980023079800f4
:10186c0000408000107890000004e0000600320078
:10187c00004080008040eb001178980010002000a0
:10188c00000f7800300037003e0090009000780088
:10189c00a0408000808f50000b0032003e00900072
:1018ac0010019000a00190001e009000ae0090006e
:1018bc00800f5100818f590003003e001000200062
:1018cc00000f7800200037003e009000a000900030
:1018dc00100090001e019000ae019000000151001c
:1018ec00818159004e0090001000be00800f510005
:1018fc00818f5900120031004e0090001001be0083
:10190c003e00900010029000a00290001e0090007b
:10191c00ae0090000000520081805a00020040008e
:10192c00838048004e0190000089be003e0090006c
:10193c00b7ff07000000eb00000f78000200370033
:10194c0010002000000f7800460e07001e007800e3
:10195c000080fa00000006000000fa0010002000d1
:10196c00904088000080fa00000006000200fa0097
:10197c00000f78002200070040e28000e10f5000c9
:10198c0003003600d2290200000000000000000015
:10199c007b0f0700f7ff37000200fa000000eb0096
:1019ac00000f7800070037001e0078006c00b900ab
:1019bc008000780080c4210000804000030d0700e7
:1019cc001e0fe8001e007800e40f5000f6ff3600f2
:1019dc0040c82100fd0c070000c92100fb0c0700ca
:1019ec00c0c92100f90c070040c821001040880034
:1019fc0000c92100204088000080fa000000060089
:101a0c000000fa000080fa00000006000200fa0054
:101a1c0010408000100078000000e00005003a0043
:101a2c000080eb008080eb00c0408800d140880033
:101a3c0009003700104080004000900040009000ea
:101a4c00000f78001e007800a0009000100090009d
:101a5c00c0408800d14088000080fa0000000600d9
:101a6c000200fa0001408000010f78001e0078008f
:101a7c000080fa00000006000200fa0070408000ae
:101a8c000000e00003003a0010002000000f780076
:101a9c0008003700f04080000000e00003003a002e
:101aac0020002000000f7800020037000000eb003f
:101abc00000f78001e0078000080fa00000006007d
:101acc000400fa00100798009e009000010f7800a7
:101adc001e0090000000e0003c0032001e00780068
:101aec00d00890000040800050089000808f50007b
:101afc00360031001e0078008008900070009000c5
:101b0c00e00f5000e08f58000a00350000408000c4
:101b1c00500890008000eb005200200003002000d1
:101b2c0000005100818059001e017800700198005e
:101b3c00010998001e007800600190001e007800da
:101b4c00500890006c00b9008000780080c421001f
:101b5c0000804000800f510018003a001e80e80001
:101b6c00130d070000408000d00890001e00780084
:101b7c00510898001e007800d0089000604080004a
:101b8c00808f5000030036001e0078005008900033
:101b9c00604088001e81e8001e007800500890000c
:101bac006c00b9008000780080c4210000804000e7
:101bbc0082007800a70c070004003700004080006a
:101bcc00d00890001e007800510898000080fa00a0
:101bdc00000006000600fa0020079800ae009000f6
:101bec00110798000000eb00000f78002e00900009
:101bfc000000e000340032001e009000101890002d
:101c0c008000e9001e009000111898001e00900042
:101c1c00d00890001e00900000189000808f50009b
:101c2c00290032001e009000101890000000e00007
:101c3c0025003a001e0090000080e800dc0c070034
:101c4c001e009000801890001e0090005108980013
:101c5c001e009000500890008000eb005200200005
:101c6c000300200000005100818059001e019000eb
:101c7c0070019800010998001e009000d008900097
:101c8c0060408000808f5000030036001e009000e2
:101c9c0050089000604088001e0090000081e80011
:101cac001e009000500890006c00b9008000780075
:101cbc0080c421000080400082007800650c070081
:101ccc0010002000000f78001e0078000080fa0041
:101cdc00000006000400fa00004080007001900033
:101cec0080099000028fbe000440800000408000fc
:101cfc00500890008000eb005200200003002000f0
:101d0c00000051008180590070029800010a98006f
:101d1c001e00be000080fa00000006000000fa0061
:101d2c00004080000000e000040032000040800011
:101d3c00901890008100e800111898000040800075
:101d4c000080fa00000006000a00fa002007980044
:101d5c003207980043079800350d070000408000bb
:101d6c00b018900020189000e00f5000e08f580041
:101d7c000f003a000040800011c0b30001789800b9
:101d8c003e009000ce009000e00f5000e08f580015
:101d9c0007003200120020003e009000ce009000a0
:101dac00dc010700d2290200000000000000000046
:101dbc002c0d07001e0d070000408000201990001c
:101dcc00b0199000028fbe001e00be00e00f500044
:101ddc00e08f58000f0032002e0090000000e00051
:101dec0005003200024080006000b8002019980005
:101dfc003119980007003700024080000082eb0088
:101e0c008082eb003e004200ae804a002019980010
:101e1c0031199800004080008040eb000178980058
:101e2c00100d07001e00be000080fa000000060026
:101e3c001000fa001007980021079800320798004c
:101e4c004307980054079800660798007707980096
:101e5c00f70c07000040800000789000e24f500023
:101e6c00250032000440800024199000b419900021
:101e7c001e009000ae0090000080ea008180ea0015
:101e8c00820278000301780080017800010078005c
:101e9c0083826200000061008000eb00c000dd0066
:101eac00000020000001be006128b8000001710094
:101ebc0081817100221a9800331a9800004080002a
:101ecc0011c0b300017898006e009000fe009000e5
:101edc00e00f5000e08f5800070032001200200085
:101eec006e009000fe0090008a010700d2290200cb
:101efc000000000000000000da0c0700cc0c07000a
:101f0c005e0090000000e000050032000040800000
:101f1c00b0189000201890005e0190000089be005f
:101f2c000040800000789000e14f500003003a0020
:101f3c000000eb00000f7800180037000440800010
:101f4c0024199000b41990003e009000ce0090002f
:101f5c000080ea008180ea008202780003017800a8
:101f6c00800178000100780083826200000061002b
:101f7c008000eb00c000dd00000020000001be006e
:101f8c006128b8000001710081817100221a98004b
:101f9c00331a980010002000000f780000408000d9
:101fac008040eb0001789800ae0c07001e00780012
:101fbc000080fa00000006001000fa0030079800bc
:101fcc00420798005307980061079800740798001f
:101fdc0010002000000f7800be0090001107980040
:101fec00930c07007e0090000000e000050032001a
:101ffc001e009000b0189000201890007e019000f8
:10200c000089be001e0090000079900042479800a5
:10201c001e00900021c0b300017898006e00900063
:10202c00e20f500017003200e20f500005003e0096
:10203c000000e0002e003200e10f500006003200dc
:10204c002c003700e30f500017003200e40f500053
:10205c001b003200270037001e0090002019900052
:10206c00b01990004e009000de009000000071004e
:10207c00818071001e019000201998003119980080
:10208c001c0037001e009000b01890002018900023
:10209c0061004000e08048001e019000201998006b
:1020ac0031199800130037001e0090004e0190006b
:1020bc00de01900022189800331898000d003700ac
:1020cc004e409000e24f5000060032001e0090007f
:1020dc004e019000de0190002218980033189800f1
:1020ec00040037000000eb00000f780001003700ff
:1020fc00000000004e409000e14f50001e003a00de
:10210c001e0090000080e800a90b07001e00900044
:10211c00d008900060408000808f50000300360093
:10212c001e00900050089000604088001e00900037
:10213c000081e8001e009000500890006c00b9006f
:10214c008000780080c4210000804000820078006c
:10215c00400b07001e009000d0089000004080004b
:10216c0050089000808f500003003600d2290200e6
:10217c0000000000000000003a0c07001e00780070
:10218c000080fa00000006001400fa0040079800d6
:10219c00520798006307980071079800040f980085
:1021ac00150f980010002000000f7800ce00900052
:1021bc00110798000000eb00200798000e08900013
:1021cc000000e000050032001e009000b0189000e6
:1021dc00201890000e0990000089be001e0090008f
:1021ec0000799000624798001e00900021c0b30057
:1021fc00017898007e009000e20f5000170032002a
:10220c00e20f500005003e000000e0002e003200fe
:10221c00e10f5000060032002c003700e30f500095
:10222c0017003200e40f50001b003200270037006b
:10223c001e00900020199000b01990005e009000d4
:10224c00ee00900000007100818071001e01900072
:10225c0020199800311998001c0037001e009000be
:10226c00b01890002018900061004000e0804800f9
:10227c001e019000201998003119980013003700a6
:10228c001e0090005e019000ee0190002218980054
:10229c00331898000d0037006e409000e24f50004c
:1022ac00060032001e0090005e019000ee019000ce
:1022bc002218980033189800040037000000eb0037
:1022cc00000f780001003700000000006e40900005
:1022dc00e14f50002d003a00f04080000000e0007b
:1022ec0016003a001e0090000080e800300b07003a
:1022fc001e009000d008900060408000808f50003d
:10230c00030036001e0090005008900060408800ca
:10231c001e0090000081e8001e0090005008900004
:10232c006c00b9008000780080c42100008040005f
:10233c0082007800c70a0700050037001e009000d5
:10234c006e00400080007800c0c92100c10a07005f
:10235c001e009000d00890000040800050089000b3
:10236c00808f5000090036001e0890000000e0002d
:10237c00040032001e0890001100200001087800b3
:10238c000200370010002000904088001e007800ea
:10239c000080fa00000006000a00fa0030079800de
:1023ac0041079800be009000010f78000000eb0080
:1023bc00100798001e007800807890004147980024
:1023cc001e00780021c0b300017898001e00780030
:1023dc00b01890002018900061004000e080480088
:1023ec001e01780020199800311998004e40900079
:1023fc00e14f50002b003a00f04080000000e0005c
:10240c0014003a001e80e800e90a07001e0078005c
:10241c00d008900060408000808f50000300360090
:10242c001e00780050089000604088001e81e80073
:10243c001e007800500890006c00b90080007800f5
:10244c0080c421000080400082007800810a0700cf
:10245c00050037009e0078006e80400080007800f8
:10246c00c0c921007b0a07001e007800d00890002c
:10247c000040800050089000808f5000090036000a
:10248c004e0090000000e000040032004e0090006e
:10249c001100200001087800020037001000200015
:1024ac00904088000080fa00000006000600fa0048
:1024bc00200798002e0090000000e00002003a0077
:1024cc0000408000010037002e009000100798009b
:1024dc00570b07001e00900000789000e24f500050
:1024ec0006003a001e0090008040eb000178980036
:1024fc0010002000000f7800020037000000eb00f5
:10250c00000f7800570b07001e0078000080fa00bf
:10251c00000006000e00fa004007980051079800d2
:10252c00620798004240800053408000028fbe003a
:10253c00004080008040eb00117898000040800043
:10254c000080e8009a0a07004e009000de00900020
:10255c003e014000ae8148000200be0020079800fa
:10256c0031079800004080002e019000be019000c1
:10257c0012009800230098002e009000be009000de
:10258c00be0f5000ae8f5800050031000040800097
:10259c008080e800204080004c0a07000f003700c4
:1025ac00004080008080e80010408000470a07004f
:1025bc00c0408000d14080002e019000be019000f0
:1025cc00800f5100818f5900040031002e019000c2
:1025dc00be019000c2408800d34088000080fa0001
:1025ec00000006000600fa0010079800210798006a
:1025fc009e009000010f78000d0b07001e00780064
:10260c00100178001e007800901090001e007800d9
:10261c00201090000088b900000078008000410074
:10262c001e007800110098001e0078008000eb005e
:10263c00011098001e007800900078001e007800b1
:10264c00210098001e007800100178001e00780010
:10265c00101090008000e9001e00780020109000ff
:10266c000088b90000007800800041001e0078004e
:10267c00310098001e00780080c0eb00616098006b
:10268c001e00780080c0eb00716098002e00900056
:10269c000000e0000d003a001e00780040009000a1
:1026ac000000e0000f0032009e00780068804000bf
:1026bc00edfb07000000e0000a003200d229020006
:1026cc000000000000000000060037009e007800ab
:1026dc0068804000bd0907009e00780074804000af
:1026ec00ba090700df0a0700100020000080fa007a
:1026fc00000006000c00fa00300798004107980013
:10270c00224f98004e0090000000e00003003a00b9
:10271c000000eb00000f780005003700be009000b1
:10272c004e0090000088b90000007800000f78007f
:10273c00a10220001e804000d80a07001007980054
:10274c001e0090000000e000090032001e00900006
:10275c00a002b000200798001e029000ae49900025
:10276c002e019000ce0090003e0090000300070068
:10277c001e0090000080fa00000006000a00fa001b
:10278c00000f780011079800220798006347980003
:10279c00440798001e0090000000e00004003a007e
:1027ac00ce0090004e009000010878000300370026
:1027bc00ae0090004e009000010878004e00900092
:1027cc009e007800111098004e0090009e00900022
:1027dc0021109800110020004e00900081ff07008e
:1027ec004e0090008000eb00411098000080fa0031
:1027fc00000006000200fa00000f78001e007800ae
:10280c000000e0000e0032001e0078008000eb009b
:10281c00110098001e0078008000eb000108780081
:10282c001e0078008000eb00310098000002eb00e5
:10283c006011b8008000eb001e0078002300070038
:10284c000080fa00000006000800fa0060479800bb
:10285c0010002000000f78000000eb00100798001b
:10286c006e4190009e0090001e007800a1ff0700b2
:10287c00200798002e009000deff07002e0090002d
:10288c000080fa00000006000600fa00100798000d
:10289c002107980022c0b3008000eb001e009000be
:1028ac0094ff0700000f78001e0078000000e00085
:1028bc00030032001e007800ae009000011098005a
:1028cc001e0078000080fa00000006001600fa00d6
:1028dc006007980071079800020f9800130f98007a
:1028ec00240f98000000eb00000f7800ee00900021
:1028fc001107980001003700000000004c0a070087
:10290c001e009000801090001e009000101090008f
:10291c00808f5000030039002e089000e20f500009
:10292c0028003a002e099000fe0090001e00900036
:10293c000e020700200798001e0090004010900027
:10294c000000e00009003200ae0890001e0090006c
:10295c00ba0407000000e00017003200d229020080
:10296c000000000000000000130037001e00900063
:10297c00200890000000e000090032001e009000ca
:10298c007400400038fb07000000e0000a00320031
:10299c00d2290200000000000000000006003700f1
:1029ac002e0090000000e00003003200d22902004b
:1029bc0000000000000000002a0a070010002000a0
:1029cc00420037000e0890009e089000e00f500067
:1029dc00e08f580003003a00220a07000000eb00c9
:1029ec003a0037001e0078000000e00004003a00b6
:1029fc006600470086fb070010002000000f7800df
:102a0c00180a0700e4f80700090a07001e009000e6
:102a1c0060609000e14f400003003a001e009000ff
:102a2c008040eb00616098001e0090007060900088
:102a3c00e14f400003003a001e0090008040eb0084
:102a4c0071609800070a0700f00047006600470015
:102a5c007bfb07000000e00018003a001e0090000d
:102a6c00a70207000000e000100032000e089000e2
:102a7c009e0890001e019000680241000001be00fb
:102a8c0004007800bbfa07001e0090003b02070010
:102a9c00c7f807000000e00097ff3a00d2290200b7
:102aac00000000000000000094ff37001e009000a2
:102abc0032020700bef8070090ff37001e0090009e
:102acc002e020700baf807000000eb000080fa00a5
:102adc00000006001000fa0040079800510798000b
:102aec006207980073079800ce00900011079800b9
:102afc000000eb00200798001e0090008010900052
:102b0c001e00900010109000808f500003003900c0
:102b1c007e009000e20f500032003a001e00900040
:102b2c00f0609000614798007e019000de009000fc
:102b3c001e0090008d0107006e409000e14f400098
:102b4c0020003a001e009000401090000000e000b1
:102b5c000c003200fe0090001e00900037040700ad
:102b6c000000e0001c0032006e0090000000e0004d
:102b7c00190032006e00900011002000010878004e
:102b8c00150037001e009000200890000000e000a7
:102b9c00110032001e00900074004000b2fa0700d1
:102bac000000e0000c0032006e0090000000e0001d
:102bbc00090032006e00900011002000010878001e
:102bcc00050037006e4090000040e800804078001f
:102bdc001e0090007160980010002000000f78001b
:102bec00020037000000eb00000f78001e00780098
:102bfc000080fa00000006000e00fa005007980052
:102c0c0061079800de009000110798000000eb00af
:102c1c00200798001e00900080109000310798004b
:102c2c001e009000901090003e009000808f50008d
:102c3c00320036001e009000f0609000014f9800aa
:102c4c003e0090008000e8001e00900001109800eb
:102c5c000e489000e14f400020003a001e0090000a
:102c6c00401090000000e0000c0032008000eb00ef
:102c7c001e009000f10307000000e0001c00320071
:102c8c006e0090000000e000190032006e00900011
:102c9c001100200001087800150037001e0090007c
:102cac00200890000000e000110032001e0090008f
:102cbc00740040006cfa07000000e0000c003200c9
:102ccc006e0090000000e000090032006e009000e1
:102cdc001100200001087800050037000e48900014
:102cec000040e800804078001e0090007160980061
:102cfc0010002000000f7800020037000000eb00ed
:102d0c00000f78001e0078000080fa00000006001a
:102d1c001800fa0070079800010f9800120f980025
:102d2c00230f9800340f98000000eb00000f780080
:102d3c00fe0090001107980003003700000000000f
:102d4c000100370000000000390907001e00900048
:102d5c0080109000210798002e0090000000e000e9
:102d6c00340032001e009000b00090003107980033
:102d7c008e0890001e0090005e0107003e08900037
:102d8c000000e00019003a002e0090008000e900dd
:102d9c001e009000011098001e009000100078009a
:102dac000000e00004003a00dcfb07008000780023
:102dbc001e009000110098001e0090004000900032
:102dcc000000e000180032001e0090006800400077
:102ddc0025fa07000000e00013003200d22902009f
:102dec0000000000000000000f0037001e009000e3
:102dfc00be009000310098001e009000200890004a
:102e0c000000e000080032001e009000740040003a
:102e1c0015fa07000000e00003003200d22902007e
:102e2c0000000000000000000e0907001000200048
:102e3c004f0037001e089000ae089000e00f5000c5
:102e4c00e08f580003003a00060907000000eb0071
:102e5c00470037001e0078000000e00004003a0034
:102e6c00680047006afa070010002000000f780085
:102e7c00fc080700c8f70700ed0807001e009000cb
:102e8c0060609000e14f400003003a001e0090008b
:102e9c008040eb00616098001e0090007060900014
:102eac00e14f400003003a001e0090008040eb0010
:102ebc0071609800eb080700f200470068004700bb
:102ecc005ffa07000000e00021003a001e009000ad
:102edc006d0107000000e000190032001e00900098
:102eec00100078000000e00005003a00d008070050
:102efc001e00900010009000f1fa0700d90807009e
:102f0c001e089000ae0890001e0190007402410053
:102f1c000001be000400780096f907001e00900026
:102f2c0016010700a2f707000000e00083ff3a003b
:102f3c00d2290200000000000000000082ff3700d0
:102f4c001e0090000d01070099f707007eff370067
:102f5c001e0090000901070095f707001e00900065
:102f6c00490107000000e00076ff32000000eb0092
:102f7c000080fa00000006001000fa0050079800cc
:102f8c006107980072079800de0090001107980006
:102f9c000000eb00200798001e00900080109000ad
:102fac00310798003e0090000000e0002500320040
:102fbc001e009000e0609000014f9800ee00900021
:102fcc001e009000cb0007003e0090008000e9003e
:102fdc001e009000011098000e489000e14f400038
:102fec0010003a001e009000400090000000e0002d
:102ffc00110032001e009000680040009af9070092
:10300c000000e0000c0032007e0090000000e000a8
:10301c00090032007e0090001100200001087800a9
:10302c00050037000e4890000040e8008040780012
:10303c001e0090006160980010002000000f7800c6
:10304c00020037000000eb00000f78001e00780033
:10305c000080fa00000006000c00fa0040079800ff
:10306c0051079800ce009000110798000000eb006b
:10307c00200798001e009000001090000000e00057
:10308c000c0032001e009000b00090003107980038
:10309c00de0090001e009000960007001e009000bd
:1030ac00be0090003100980010002000000f780046
:1030bc00020037000000eb00000f78001e007800c3
:1030cc000080fa00000006000400fa0010079800c7
:1030dc00570807001e00900080109000010f780028
:1030ec00600807001e0078000080fa00000006004f
:1030fc000600fa0020079800ae009000010f78003f
:10310c004b0807001e007800901090001e007800fd
:10311c000010900000805000100798005108070024
:10312c001e0090000080fa00000006000400fa0067
:10313c00100798001e00900080109000010f78007e
:10314c001e0078000080fa00000006000400fa005f
:10315c00100798009e009000010f78001e00780068
:10316c007f0807000080fa00000006000a00fa0041
:10317c002007980031079800420798000000eb00e8
:10318c00000f78002e00900080109000110798001e
:10319c002e009000201090000000e0000c003a007f
:1031ac002e009000100078000000e0004a003a0069
:1031bc002e0090001000900086fa0700000f780097
:1031cc002e0090008000eb001100980042003700a8
:1031dc004e0090000000e00019003a002e00900014
:1031ec00a01090002e0090002000900001017800ab
:1031fc00be009000cdf407002e009000a0009000bf
:10320c002e00900020109000808040002e00900036
:10321c00210098002e009000a00090002e0090003d
:10322c0010009000808f50002b0039002e00900071
:10323c00900078002e0090002100980026003700a6
:10324c002e009000a01090002e00900030009000f6
:10325c0001017800be009000b4f407002e0090002d
:10326c00b00090002e009000201090000000ea00aa
:10327c00808040002e009000310098002e009000bd
:10328c00b00090002e00900010007800808f50004d
:10329c00080031002e009000900090002e0090004d
:1032ac00201090000000ea00808040002e0090006a
:1032bc00310098004e009000e20f500006003a00da
:1032cc001e0090000000e000030032001e00900081
:1032dc000000e900100798001e0090008000e80034
:1032ec002e009000011098001e0078000080fa005b
:1032fc00000006000400fa00000f78001107980087
:10330c001e007800201090000000e0001900320030
:10331c001e007800b00090001e0078002010900075
:10332c00808040001e007800310098001e0078005c
:10333c00b00090001e00780010009000808f5000ac
:10334c00040039001e007800900078001e00780000
:10335c00310098001e007800a01090001e0078002c
:10336c003000900001017800800078001e00900071
:10337c006ef407000080fa00000006000400fa005a
:10338c0010079800aa0707001e009000f06090003c
:10339c00014f7800160037001e009000401090007e
:1033ac000000e000070032008000eb001e009000df
:1033bc00220207000000e0000c00320066f9070052
:1033cc000a0037001e009000200890000000e0006a
:1033dc000b0032001e00900074004000a2f80700a1
:1033ec000000e000010032005bf907001e4fe9000d
:1033fc001e4078000004e000e7ff3c0001003700ad
:10340c00000000001e00900080c0eb00716098006e
:10341c0094070700860707001e009000e0609000ec
:10342c00114798000d0037001e00900040009000de
:10343c000000e0000d0032001e009000680040000b
:10344c0089f807000000e0000100320042f9070093
:10345c001e4090000040e900104798001e4090006c
:10346c000004e000f0ff3c00010037000000000009
:10347c001e00900080c0eb00616098007907070087
:10348c000080fa00000006000400fa001007980003
:10349c00670707001e009000001090000000e0007d
:1034ac0003003a0010002000000f780002003700e3
:1034bc000000eb00000f78006a0707001e00780080
:1034cc000080fa00000006000400fa0010079800c3
:1034dc001e009000001090000000e00003003a0075
:1034ec0010002000000f7800020037000000eb00f5
:1034fc00000f78001e0078000080fa000000060023
:10350c000400fa0010079800490707001e009000fd
:10351c00801090001e00900010109000808f5000c2
:10352c0003003a0010002000000f78000200370062
:10353c000000eb00000f78004a0707001e0078001f
:10354c000080fa00000006000400fa001007980042
:10355c001e009000801090001e0090001010900033
:10356c00808f500003003a0010002000000f7800fc
:10357c00020037000000eb00000f78001e007800fe
:10358c000080fa00000006000c00fa0020079800ea
:10359c00310798004207980053079800ae0090003e
:1035ac001107980011028000f0f12f0000806000dc
:1035bc000050a00010028800000000000000000075
:1035cc001e009000ceff07000000e0001900320042
:1035dc004e009000de009000e00f5000e08f58008d
:1035ec000d0032001e0090006800400000017800c1
:1035fc004e009000de009000c9040700110280000c
:10360c00f0f12f0000806000100288000000000024
:10361c00c0ff2f003300370011028000f0f12f00a3
:10362c000080600010028800000000000000eb0029
:10363c002c00370011028000f0f12f000080600098
:10364c00100288000000000011028000f0f12f0031
:10365c00008060000050a0001002880000000000f4
:10366c00000000001e009000801090001e009000d2
:10367c0010109000808f5000120031000001eb0000
:10368c00be0090001e009000b8fe07001000200045
:10369c00000f78001e009000200890000000e00051
:1036ac000a0032001e00900074004000ab050700b9
:1036bc000000e00005003200b0ff2f00000f780082
:1036cc00020037000000eb00000f780011028000b0
:1036dc00f0f12f0000806000100288000000000054
:1036ec001e0078000080fa00000006000c00fa00b2
:1036fc00200798003107980042079800530798005c
:10370c00ae0090001107980011028000f0f12f001c
:10371c00008060000050a000100288000000000033
:10372c00000000001e009000001090000000e0005f
:10373c0019003a004e009000de009000e00f50009f
:10374c00e08f58000d0032001e0090007400400005
:10375c00000178004e009000de009000700407001d
:10376c0011028000f0f12f00008060001002880030
:10377c0000000000c0ff2f004b003700110280003a
:10378c00f0f12f00008060001002880000000000a3
:10379c000000eb004400370011028000f0f12f0014
:1037ac000080600010028800000000001102800000
:1037bc00f0f12f00008060000050a0001002880083
:1037cc0000000000000000001e009000001090009f
:1037dc000000e0002c0032001e009000b0009000b1
:1037ec001e00900020109000808040001e00900071
:1037fc00310098001e009000b00090001e00900058
:10380c0010009000808f5000040039001e009000c2
:10381c00900078001e009000310098001e0090006f
:10382c00001090008000e9001e009000011098002c
:10383c001e009000a01090001e0090003000900020
:10384c0001017800800078003e00900037f30700fb
:10385c0010002000000f78001e0090004000900027
:10386c000000e0000a0032001e00900068004000da
:10387c003a0507000000e00005003200b0ff2f0001
:10388c00000f7800020037000000eb00000f7800fa
:10389c0011028000f0f12f000080600010028800ff
:1038ac00000000001e0078000080fa0000000600f6
:1038bc000800fa00100798002107980032079800ba
:1038cc009e009000010f78001e0078008010900080
:1038dc001e00780010109000808f500012003100f4
:1038ec000001eb00ae0090001e0078001ffe0700e8
:1038fc003e0090000000e0000b003a001e00780033
:10390c00200890000000e000070032009e007800c4
:10391c0074804000110507000000e0000200320036
:10392c0010002000010037003e0090000080fa00db
:10393c00000006000a00fa002007980031079800e2
:10394c0042079800ae009000110798001e009000ee
:10395c00001090000000e000310032001e009000ca
:10396c00b00090001e00900020109000808040005d
:10397c001e009000310098001e009000b0009000d6
:10398c001e00900010009000808f50000400390041
:10399c001e009000900078001e00900031009800ee
:1039ac001e009000001090008000e9001e009000a6
:1039bc00011098001e009000a01090001e009000b6
:1039cc003000900001017800800078003e009000eb
:1039dc00d6f207004e009000100078000000e000c6
:1039ec000c003a001e009000400090000000e00027
:1039fc00080032001e00900068004000d704070049
:103a0c000000e000030032004e0090001100200086
:103a1c000108780010002000000f78000200370029
:103a2c000000eb00000f78001e0078000080fa0008
:103a3c00000006000a00fa00100798002207980000
:103a4c0033079800410798009e009000010f780002
:103a5c00f70507001e00780060609000e14f400001
:103a6c0003003a001e0078008040eb006160980073
:103a7c001e00780070609000e14f400003003a0097
:103a8c001e0078008040eb0071609800f50507007f
:103a9c001e007800001090000000e00006003a00c4
:103aac009e00780074804000ce0090002e019000a3
:103abc00be019000d5f607001e0078002ffe07000f
:103acc000080fa00000006000400fa0010079800bd
:103adc000041eb00210020001e00900005fb0700b8
:103aec00000f78001e0078000080fa00000006002d
:103afc000600fa001007980021079800cc05070073
:103b0c001e009000401090000000e0000300320006
:103b1c000000eb00000f78000c0037001e00900036
:103b2c00001090000000e000030032000000eb00e9
:103b3c00000f7800050037001e009000ae009000ca
:103b4c004110980010002000000f7800c5050700f8
:103b5c001e0078000080fa00000006000800fa0041
:103b6c002007980031079800ae00900011079800cc
:103b7c001e009000c01090003e009000808f5000fe
:103b8c00030032000000eb00000f78000e0037003d
:103b9c001e009000001090000000e00003003200b6
:103bac000000eb00000f780007003700a0050700ad
:103bbc001e0090008000eb0041109800a905070042
:103bcc0010002000000f78001e0078000080fa0022
:103bdc00000006000800fa00100798002207980061
:103bec00330798000000eb00000f78000002eb0098
:103bfc002e019000be0190008e0078001e009000f7
:103c0c0043fc07001e0078000080fa00000006004c
:103c1c000400fa00100798000000eb00000f780079
:103c2c000001eb008e0078001e009000d2fc070013
:103c3c001e0078000080fa00000006000a00fa005e
:103c4c0030079800410798003e009000c01090008b
:103c5c00110798000000eb00000f78001e00900088
:103c6c00801090001e00900010109000808f50006b
:103c7c001d0031001e009000f0609000414798003c
:103c8c00660047004e019000800078001e009000f6
:103c9c0036fd0700000f78004e409000e14f4000c9
:103cac000c003a001e009000200890000000e0007c
:103cbc000d0032001e009000740040006af60700f0
:103ccc000000e0000800320010002000000f780017
:103cdc00050037004e4090000040e800804078001e
:103cec001e009000716098001e0078000080fa00a1
:103cfc00000006000200fa000000eb00000f780044
:103d0c0046020700c04180000000e00008003200bd
:103d1c00a5832000340020008001eb000208200065
:103d2c0061302800a001220039f20700000f780052
:103d3c001e0078000080fa00000006000e00fa0059
:103d4c001007980022079800330798004107980045
:103d5c005407980065079800800120004f05070064
:103d6c00000f78001e0078000000e0000800320010
:103d7c001e037800ee0290005e029000ce009000d0
:103d8c002e019000be0190001e0090000300070061
:103d9c001e0078000080fa00000006000e00fa00f9
:103dac00000f78001207980023079800310798003d
:103dbc004407980055079800660798006e0090001d
:103dcc000000e00014003200140207006e009000a6
:103ddc001e0878006e0090001e019000ae0190004d
:103dec0072009800030898006e009000be019000cd
:103dfc00130898006e009000ce00900021089800e7
:103e0c006e0090005e019000320898006e009000e9
:103e1c000080e800080407000080fa00000006009b
:103e2c001a00fa006007980071079800020f9800ba
:103e3c00130f9800240f9800360f9800470f980026
:103e4c000000eb00000f7800c04180000000e00093
:103e5c0023003200fe009000110798000e0990001c
:103e6c009e09900022079800330798006e0090007e
:103e7c00400798007e009000e50f500012003c00b7
:103e8c00fdf60700e20f500008003a00c041800028
:103e9c008e80e8000002eb003e099000ce099000f5
:103eac008afa0700000f78000d003700c04180002f
:103ebc008e80e8000002eb006011b80083fa070066
:103ecc00000f780006003700c04180008e80e800ab
:103edc008001eb002e099000fefa0700000f78001d
:103eec001e0078000080fa00000006000000fa00b6
:103efc00d04180000080fa00000006000400fa00a7
:103f0c00100798009e009000010f78001e007800aa
:103f1c0080089000700090000080fa0000000600fd
:103f2c000800fa0030079800be009000010f7800de
:103f3c001e00780010019000a0019000120798005c
:103f4c00230798001e009000ae0090000080fa003d
:103f5c00000006000400fa00100798009e00900074
:103f6c00010f78001e007800100078000080fa0025
:103f7c00000006000c00fa0020079800310798009a
:103f8c004207980053079800a04180004000900021
:103f9c0040009000000f78001e80e8000404070029
:103fac001e00780010089000e10f500018003a0035
:103fbc001e00780070019000800990002e00900087
:103fcc00be00900002004000838048002e03900049
:103fdc00be0390004e029000de0290000001be0075
:103fec001e007800810007000000e000080032008d
:103ffc006033b8000002eb002e019000be0190006f
:10400c008000eb001e00780085ff07001007980069
:10401c001e007800b00890001e007800010001001e
:10402c000080fa00000006000800fa003007980033
:10403c00640047003d000700008fbe002e0090007a
:10404c00000178001e00be0002000700ac00070053
:10405c00f7ff37000c00fa00300798004107980072
:10406c00520798004cf30700640047004700070014
:10407c00008fbe002e0090000000e00026003a00e9
:10408c005e0090000000e0000b003a003e00900043
:10409c00ce009000be0f5000ae8f580006003e00c0
:1040ac0043f307001e01be003e009000ce009000be
:1040bc00b0ff07001b0037005e0090000000e0001e
:1040cc0007003200b04180001000780000f0a7001b
:1040dc000000ea000000e9004f00de0050079800e5
:1040ec003e009000ce0090003e015000ae81580082
:1040fc00c0418000de0090004efe07002cf307004c
:10410c000000e00006003a00d22902000000000086
:10411c00000000000300370025f307000100370002
:10412c00000000000080fa00000006000600fa0003
:10413c0020079800a04180001000780000f0a70034
:10414c000000ea000000e9004f00de00ae00900025
:10415c00800878002e009000100078000000e0002d
:10416c0005003a00a041800040009000301f78000c
:10417c0020177800020037006000b800008fbe00e6
:10418c001e00be000080fa00000006000600fa00c7
:10419c00200798005bf30700008fbe00e041800011
:1041ac00f14180001e01be00800f5100818f59002b
:1041bc0005003100d70007002e00900011002000f0
:1041cc0001087800030037002e0090008000eb00ff
:1041dc00010878001e01be00e2418800f34188000e
:1041ec001e00be000080fa00000006001000fa005d
:1041fc00100798002207980033079800440798008e
:10420c005507980066079800770798000000eb00a8
:10421c00000f78001e0090002e019000be0190004f
:10422c0012009800230098001e0090009e01900040
:10423c00530098002e019000be0190004e0090009b
:10424c00de009000800f5100818f590014003e0059
:10425c004e019000de0190006e009000fe00900078
:10426c0000015100818159001e00900080089000cf
:10427c0070009000800f5100818f590003003900ad
:10428c0010002000000f78001a0037001e0090006c
:10429c008080e800b04180000c0307001500370057
:1042ac004e019000de0190006e009000fe00900028
:1042bc00800f5100818f59000a0031002e019000af
:1042cc00be0190006e009000fe009000800f510027
:1042dc00818f59000300390010002000000f780076
:1042ec00040037001e0090008080e800a041800090
:1042fc00f60207001e0078000080fa00000006009d
:10430c001600fa007a0037005e0090000000e00012
:10431c000c003d006a004700008fe8001e0078008a
:10432c00900278001e007800b000900020009000f1
:10433c001e017800120290000001be0004007800fb
:10434c00050001005e0090000000e00068003500f0
:10435c008e089000110798001e00900060009000dd
:10436c000000e000030032001e0090000080e80016
:10437c000f0307007400470084ff07002007980014
:10438c00310798005e009000e50f50004c003200a1
:10439c00e50f500007003c00e30f50004b003200cb
:1043ac00e30f500032003c000000e00049003500f3
:1043bc0007003700e80f500048003200e80f5000ab
:1043cc0003003500e90f5000290032004800370087
:1043dc006e019000fe0190006e029000fe029000b3
:1043ec001e009000800890007000900004004000b7
:1043fc00858048000203be002e029000be02900091
:10440c000001be001e00900078ff07000000e000d5
:10441c00340032001e009000b00890001e00900086
:10442c00010001001e00900010089000e10f5000e8
:10443c002e003a006e019000fe0190001e009000cc
:10444c0080089000700090000200400083804800bb
:10445c006033b8000002eb000001be008000eb00ee
:10446c001e0090006efe07004007980020003700e9
:10447c006e009000fe0090001e01900070019800ec
:10448c00010998001e0090007001900080099000b6
:10449c002e009000be009000020040008380480077
:1044ac002e039000be0390002e029000be029000de
:1044bc000001be001e0090004cff07000c003700ee
:1044cc001e009000a6030700090037000000000042
:1044dc000700370000000000050037000000000056
:1044ec00030037000000000001003700000000004e
:1044fc00c0418000ea0047000002eb006011b800e8
:10450c0003fa07000000e0007fff3a000080fa0089
:10451c00000006000e00fa0034003700a0418000b5
:10452c0040009000301f780020177800a0418000d8
:10453c004000900040009000200798002e00900052
:10454c000080e8009a0207002e009000b00890004e
:10455c002e009000010001002e0090001008900029
:10456c00e10f500021003a002e00900080089000ce
:10457c00700090003e014000ae8148000200be0079
:10458c0030079800410798003e009000ce00900044
:10459c00be0f5000ae8f58000d0036002e0090005c
:1045ac003e019000ce01900012009800230098006c
:1045bc002e009000ae019000530098002e00900049
:1045cc008080e800a041800040020700070037000f
:1045dc006033b8000002eb001e01be008000eb004f
:1045ec002e0090000efe070050079800a04180009e
:1045fc00100078000000e000c8ff3a00a1418000e4
:10460c0061079800b0418000a04188006e019000c5
:10461c00b24188000080fa00000006000000fa0099
:10462c0003030700c04180000000e0000d003a00c9
:10463c0040d02100e501070000d12100e301070073
:10464c0040d02100a041880000d12100b041880059
:10465c000041eb00a10020002003200025f80700fa
:10466c00c0418800ff0207000080fa00000006002d
:10467c000600fa0020079800ae009000010f7800a9
:10468c00eb0207001e0078006000900000f0a7000d
:10469c000000ea000000ea004f00de00100798005e
:1046ac00f00207001e0090000080fa0000000600d7
:1046bc000600fa0020079800ae009000010f780069
:1046cc00db0207001e007800a0089000110798007c
:1046dc00e40207001e0090000080fa0000000600b3
:1046ec000600fa0010079800210798009e00900021
:1046fc00010f7800ce0207001e007800ae0090007b
:10470c0021089800d70207000080fa00000006007c
:10471c001600fa006007980071079800020f9800c5
:10472c00130f9800240f9800e0ff2f00100798003b
:10473c00ee009000210798007e019000320798004f
:10474c000e0990009e0990004207980053079800ac
:10475c00c04180008e80e8008001eb002e099000a3
:10476c00dcf80700000f78001e0078000080fa00cb
:10477c00000006001800fa00600798007107980006
:10478c00020f9800130f9800240f9800350f980013
:10479c000080eb0010079800ee00900021079800b5
:1047ac007e019000320798000e0990009e0990003f
:1047bc004207980053079800c04180008e80e800a3
:1047cc000002eb002e099000be0990003ff8070094
:1047dc00000f78001e0078000080fa000000060030
:1047ec000a00fa0020079800310798004207980049
:1047fc0000022000a9020700100798001e0090007c
:10480c000000e00041003200204180000000e00088
:10481c0003003a009e0090002141880035010700fa
:10482c003e009000e10f5000020036001000200006
:10483c00300798001e0090008000eb007108980073
:10484c001e009000be009000510898001e009000c1
:10485c00ce009000610898001e009000ae00900001
:10486c00010878001e0090000080e800720107002b
:10487c001e0090006e0040006f0107001e009000ab
:10488c009e009000510098001e0090009e00900029
:10489c00310898003e0090008000eb0022002000c0
:1048ac000300200000005100818059001e0190007f
:1048bc0070019800010998001e009000d00890002b
:1048cc0030418000808f5000030036001e009000a5
:1048dc0050089000304188001e0090000081e800d4
:1048ec001e009000500890006c00b9008000780009
:1048fc0080ca21000080400082007800550107002a
:10490c0010002000000f7800020037000080eb0040
:10491c00000f78001e0078000080fa0000000600ee
:10492c000a00fa0020079800310798004207980007
:10493c0042418000534180002e009000be00900048
:10494c00001f410001974900204180000080e800d1
:10495c0097010700204180001e01be001200980044
:10496c002300980040418000514180001e01be0090
:10497c00800f5100818f59000500310020418000cb
:10498c008080e800104180005001070004003700cf
:10499c00204180008080e800004180004b0107002e
:1049ac004e0090000000e000050032002041800025
:1049bc006e004000800078004e009000430107001c
:1049cc000080fa00000006000200fa002500370003
:1049dc0011028000f0f12f00008060000050a00058
:1049ec0010028800000000000000000000e78000ba
:1049fc0040009000000f78009e0078006e80400010
:104a0c006b01070011028000f0f12f0000806000a4
:104a1c0010028800000000001e80e80064010700fe
:104a2c001e007800d008900030418000808f50002c
:104a3c00030036001e0078005008900030418800ba
:104a4c001e81e8001e007800500890006c00b90030
:104a5c008000780080ca210000804000820078002d
:104a6c00fc000700c0e680000000e000d8ff3a0020
:104a7c000080fa00000006000400fa0021f1070093
:104a8c000001be00604180007141800000005100b7
:104a9c008180590080418800914188005400370082
:104aac00404180005141800061004000e08048009e
:104abc004041880051418800804180009141800034
:104acc0061005000e08058008041880091418800ce
:104adc004041800051418000e00f5000e08f5800b1
:104aec003c003a0001418000010f78001041800029
:104afc00004188009e007800114188003600370084
:104b0c000041800040009000400090001007980089
:104b1c001e00900010019000a00190004041800008
:104b2c0051418000800f5100818f59002f003e00b1
:104b3c0011028000f0f12f00008060000050a000f6
:104b4c001002880000000000000000001e00900011
:104b5c000080e800160107001e009000400890003d
:104b6c000000e000030032001e0090006e004000c8
:104b7c000f01070011028000f0f12f00008060008f
:104b8c0010028800000000001e009000d008900069
:104b9c0030418000808f5000030036001e009000d2
:104bac0050089000304188001e0090000081e80001
:104bbc001e009000500890006c00b9008000780036
:104bcc0080ca21000080400082007800a10007000c
:104bdc000100370000000000004180001000780048
:104bec000000e000c6ff3a000100370000000000a2
:104bfc008041800091418000e00f5000e08f580010
:104c0c00a7ff3a004041800051418000604188007c
:104c1c00714188000080fa00000006000200fa00d2
:104c2c0069ff070094ff0700060037003041800041
:104c3c000000e0002c003200304180000000e90050
:104c4c0030418800304180006c00b9008000780051
:104c5c0080ca210000804000100078000000e000b5
:104c6c00f2ff3200304180006c00b9008000780007
:104c7c0080ca2100008f40001e00780010009000b8
:104c8c00a00090001e007800110098001e00780013
:104c9c00900090001e01780064004100808f50004d
:104cac0005003a001e00780010009000a000900053
:104cbc001e007800110098001e0078001000900073
:104ccc0040009000204188002041800010017800b5
:104cdc0020418000e008900020418000020001008b
:104cec000000000001003700000000000080fa0006
:104cfc00000006000200fa000000eb00000f780034
:104d0c00070037001e0078006c00b90080007800a6
:104d1c0080ca2100008040002c0007001e0fe80014
:104d2c001e007800e10f5000f6ff360000cc210089
:104d3c0026000700c0cc21002400070080cd2100f4
:104d4c002200070000cc210000418800c0cc2100cb
:104d5c00104188000080fa00000006000600fa00ee
:104d6c00200798002e00900040009000400090001a
:104d7c00100798001e0090006e0040008c00070089
:104d8c001e0090006e0040008000780080cd210055
:104d9c00300007001e009000d008900020418000d9
:104dac0050089000808f5000030039001000200044
:104dbc00000f7800020037000000eb00000f7800b5
:104dcc001e0078000080fa00000006000200fa00c5
:104ddc00000f78009e00780064804000800078000e
:104dec001e007800110098001e0178000080eb0076
:104dfc008080eb0020019800310198009e00780023
:104e0c0064804000800078001e007800410098000b
:104e1c009e00780064804000800078001e007800be
:104e2c00510098001e0078008000eb00010878000b
:104e3c000080fa00000006000200fa00000f780063
:104e4c001e0078008000eb00510098000080fa00f2
:104e5c00000006000600fa001007980021079800d1
:104e6c001e00900090009000010f78002e00900022
:104e7c009e007800210098001e007800b000900081
:104e8c002e009000310098001e0078003000900039
:104e9c00ae009000210098001e007800ae0090003b
:104eac00310098002e0090009e0090005100980058
:104ebc001e009000100078008000e8001e0090009a
:104ecc00010878000080fa00000006000a00fa00d1
:104edc0030079800410798004e0090001001be006a
:104eec0012079800230798001e019000ae01900055
:104efc000080eb008080eb00800f5100818f590007
:104f0c0004003a003e009000d0019000030f78009e
:104f1c000f0037003e00900064004000000f780046
:104f2c00030037001e007800a0009000010f7800ed
:104f3c001e007800200090001001be001e009000a2
:104f4c00ae009000800f5100818f5900f5ff3600a4
:104f5c001e007800a00090004e00900021009800e8
:104f6c004e009000200090004e01900032009800fe
:104f7c004e0090009e017800330098001e007800cf
:104f8c00ce009000210098004e0090003e01900051
:104f9c00520098003e009000100078008000e8005d
:104fac003e009000010878000080fa000000060026
:104fbc000400fa00100798001e00900050009000aa
:104fcc00000f78001e009000200090009e009000c2
:104fdc00b1009000310098001e009000300090004d
:104fec009e009000a1009000210098001e00780007
:104ffc00900090001e009000808f500004003a003a
:10500c001e009000b00090001e0078001100980067
:10501c001e0090008000eb00510098001e007800ec
:10502c00100078008000e9001e007800010878006c
:10503c001e007800100078000080fa0000000600c6
:10504c002a00fa0020179800311798004217980090
:10505c00e4004700822b28000f000900b2187800ea
:10506c00be109000110798002e1090001e019000a9
:10507c00020878002e1090000080e800201798009d
:10508c002e1090008000eb00010878002e1090008c
:10509c000080e800201798002e1090008000eb0094
:1050ac00010878002e1090000080e800201798006e
:1050bc00ce1090002e109000010878002e10900059
:1050cc000080e800201798000000eb00000f78002b
:1050dc000a0037001e007800000040000000470066
:1050ec00a00090002e109000010878002e10900067
:1050fc000080e800201798001e0fe8001e007800c2
:10510c00ef0f5000f3ff3600210280002e109000ac
:10511c00010878002e1090000080e80020179800fd
:10512c00910180002e109000010878002e10900044
:10513c000080e80020179800a10180002e1090003c
:10514c00010878002e1090000080e80020179800cd
:10515c002e1090008000eb00010878002e109000bb
:10516c000080e800201798002e1090000080fa00b4
:10517c00000006000000fa00190007000040800043
:10518c00900778004f007800204288003400f90026
:10519c003200f9004400f9005400f9003600f9001f
:1051ac004f0778004f06be004f05be004f04be00ef
:1051bc004f03be004f02be004f01be004f00be00a9
:1051cc004200f90000000600100020000080fa00e8
:1051dc00000006000000fa000080fa000000060043
:1051ec000400fa00703e200001002000008fbe0079
:1051fc009421ef009021ef001e007800900c8800a5
:10520c0041058000f0ff28000080600000c0a00075
:10521c00400588008860a9009860a8009481a800c7
:10522c0094a1a90095e1a8000080fa0000000600f6
:10523c000000fa0011028000f0f12f0000806000e5
:10524c000050a000100288000000000000000000c8
:10525c00204280000000e800204288000080fa0014
:10526c00000006000000fa00204280000000e90067
:10527c0020428800204280000000e00005003a0037
:10528c0011028000f0f12f000080600010028800f5
:10529c00000000000080fa00000006000400fa0084
:1052ac00100798000000eb00000f78001e00900023
:1052bc0061006000004078000004e000050032004e
:1052cc009e009000e0ff2f00008060000080e8004e
:1052dc0010079800b0ee0700104280000000e000bc
:1052ec0004003a00a1842000e0ff2f000080600041
:1052fc0010428800014280001e0090008080400017
:10530c00d03f2100808f50000d003e0001428000f4
:10531c001e0090008080400000428000808f500072
:10532c00070036001142800000428000008f4000d0
:10533c00014280001e009000008040000042880066
:10534c009bee07001e0078000000e00001003a0010
:10535c001a0107001e0078000080fa000000060009
:10536c000200fa00000f78000080fa00000006002e
:10537c000000fa004028ef000080fa000000060050
:10538c000000fa0000428000e13f21000080500044
:10539c000080fa00000006004200f800801f780030
:1053ac000002200010028800811f7800829fbe003e
:1053bc00849fbe00869fbe00889fbe008a9fbe0051
:1053cc008c9fbe008e1f78003600f8005400f80049
:1053dc004400f8003200f8003400f800204280004d
:1053ec00801f7800004080000f0878003c0a020003
:1053fc000000000000408000900778004f0078000b
:10540c00204288003400f9003200f9004400f90011
:10541c005400f9003600f9004f0778004f06be0023
:10542c004f05be004f04be004f03be004f02be002e
:10543c004f01be004f00be004200f9000000060004
:10544c000000fa0004010700530007007500070074
:10545c00100020001900070020ee0700ffff3700a6
:10546c000400fa00000f7800110798001e00780065
:10547c00700890000000e00004003200c10b200016
:10548c00810f5000090032000a0037000001eb00c8
:10549c00803e20000100200021fd07001e00780046
:1054ac00c10b20007108980002003700750007003e
:1054bc00f6ff37000080fa00000006000200fa0038
:1054cc00000f78000001eb008000eb0060a32200cd
:0c54dc00c3fc07000080fa00000006007e
:020000040000fa
:1054e800a81c00003c00000080000000200800000c
:1054f80014000000800000004408000002000000c2
:1055080082000000ef000000481c0000600000005e
:10551800800000000008000020000000800000005b
:10552800041d00001800000080000000340800007e
:105538000c00000080000000480800000014000073
:105548008000000040080000040000008000000007
:10555800e41c000020000000800000004608000055
:105568000200000082000000ffff000000000000b1
:020000040000fa
:105578000200fa00000f78008002eb001e0278009b
:105588008001eb0002102000212f2800c0ad22006e
:1055980020ec07000080fa00000006000000fa0076
:1055a80010002000f2ff07000080fa00000006004b
:1055b8000200fa00000f7800401f200001002000c0
:1055c800f8ec0700d03380004e00de006140600038
:1055d8000004a200614060000080fb0061006000e0
:1055e8004e00dd00d2338000f1ff2b008100610006
:1055f80001007000d0338800efff37000200fa0086
:10560800000f78008002eb001e0278008001eb009a
:1056180002102000c12f280020b22200fdeb070055
:105628000080fa00000006000000fa0010002000c8
:10563800f2ff07000080fa00000006000200fa00ee
